:1000000000000320D1010000F5980000AD98000029
:10001000AD980000AD980000AD980000AD980000CC
:10002000AD980000AD980000AD980000F598000074
:10003000F5980000AD980000E9AB000039AE000073
:10004000F5980000F5980000F5980000F59800007C
:10005000F5980000F5980000F5980000F59800006C
:10006000F5980000F5980000F5980000F59800005C
:10007000F5980000F5980000F5980000F59800004C
:10008000F5980000F5980000F5980000F59800003C
:10009000F5980000F5980000F5980000F59800002C
:1000A000512E0000892F0000F5980000F5980000FF
:1000B000F5980000F5980000F5980000F59800000C
:1000C000F5980000F5980000F5980000F5980000FC
:1000D000F5980000F5980000F5980000F5980000EC
:1000E000F5980000F5980000F5980000F5980000DC
:1000F000F5980000F5980000F5980000F5980000CC
:10010000F5980000F5980000F5980000F5980000BB
:10011000F5980000C19F0000F5980000F5980000D8
:10012000F5980000F5980000F5980000F59800009B
:10013000F5980000F5980000F5980000F59800008B
:1001400029B00000F5980000F5980000F59800002F
:10015000F5980000F5980000F5980000F59800006B
:10016000F5980000F5980000C1300000F5980000F7
:10017000F5980000F5980000F5980000F59800004B
:10018000F5980000F5980000F5980000F59800003B
:10019000F5980000F5980000F5980000F59800002B
:1001A000F5980000F5980000F5980000F59800001B
:1001B000F5980000F5980000F5980000F59800000B
:1001C000F5980000F5980000F5980000F5980000FB
:1001D000594B4CF2205210B51A804DF628121A8055
:1001E00000BF00BF09F08AFB544B4FF030621A6029
:1001F000534A9A60534ADA60534B4FF470021A60C4
:10020000524B534A1A60534B1A78110703D51A7888
:1002100042F008021A70504B5049AA221A70504AF4
:10022000504B8B4204D252F8040F43F8040BF8E70A
:100230004D4B4E4900228B4202D243F8042BFAE781
:100240004B494C4A002352F8230041F82300013364
:10025000742BF8D1484B494A802103F8011B934283
:10026000FBD1474B424A1A60464B8A221A70A3F5CB
:10027000805324225A70A0221A709A799207FCD5D2
:100280009A79D406FCD4404A937903F00C03082BE6
:100290003D4BF9D101221A7148225A719A79900680
:1002A000FCD5394A9179384B4906FBD5374A38494C
:1002B00011600221516020221A709A7902F00C021A
:1002C0000C2AFAD1334B344A1A60344A344C13683E
:1002D00013F4807303D123604FF4A8531360314BA0
:1002E000314A1A6000225A60072243F8042C2F4A30
:1002F000C3F80C2D62B609F039FB2368DA0705D57F
:100300002B4809F021FB2B4B2B4A1A602B4B1B78F7
:100310005B0609D5274C284B22689A4204D1244811
:1003200009F012FB002323600CF06AF809F0ECFAE4
:100330000AF072FEFEE700BF0E2005403080044048
:10034000823F04000100002B88ED00E0002008E05F
:100350000300008502D0074000E00740F812FF1FAD
:10036000944401003007FF1FF812FF1F44050220CC
:100370000002FF1F0000000000E400E064E400E071
:1003800008ED00E000500640004006404480044074
:100390000000030104800440C010050010D0034099
:1003A00014D0034014E000E0FF760100000020209C
:1003B000E1D1BF5D1CE00340A5C3945A00F00740A3
:1003C000FFFFFFFFFFFFFFFFFFFFFFFFFFFFFFFF3D
:1003D000FFFFFFFFFFFFFFFFFFFFFFFFFFFFFFFF2D
:1003E000FFFFFFFFFFFFFFFFFFFFFFFFFFFFFFFF1D
:1003F000FFFFFFFFFFFFFFFFFFFFFFFFFFFFFFFF0D
:10040000FFFFFFFFFFFFFFFFFFFFFFFFDEF9FFFF23
:1004100010B5054C237833B9044B13B10448AFF33E
:1004200000800123237010BDF812FF1F00000000A0
:1004300090440100084B10B51BB108490848AFF3C0
:1004400000800848036803B910BD074B002BFBD0A0
:10045000BDE81040184700BF00000000FC12FF1F5D
:1004600090440100F812FF1F00000000024A1368C8
:1004700023F40043136070473C800440024A136831
:1004800043F40043136070473C8004402DE9F04F73
:100490002DED048B022883B008EE101A00F2848040
:1004A000002840F0EC804FF480739FED988A019013
:1004B0004AF644484FF000090093954CDFF854A2E7
:1004C000002526462F464FF0000B07E0012A73F166
:1004D000000320DB5D4508BF54451CD0A4197D41B5
:1004E00042464B46204629460BF064FD00F00702C9
:1004F00001F00043002A73F1000EE7DA12F1FF3237
:1005000062F0070201324FF0FF3343F10003012A8A
:1005100073F10003DEDA7F4A019BA0FB02AB02FB12
:1005200001BB009904FB03F301FB0533A4FB014568
:10053000D046D9461D44012600270CE0013647F17C
:10054000000718EB0A0849EB0B09002F08BFB6F5A6
:10055000807F00F0C88022462B46404649460BF07B
:1005600029FD1343EAD122462B46404649460BF06B
:1005700021FD18EE103A9A00D317804689469DE86F
:1005800003000BF017FD644B08F1FF325A60741E34
:10059000421E1C609A600BF0CFFCB8EEC88A08EED1
:1005A000900A78EE089A4BE0B8EEC88A07EE902AD7
:1005B00078EE089AF8EEE77A9FED587A9FED589A10
:1005C00067EEA97A012400254FF001084FF00009D9
:1005D000C7EE278A26462F4640464946B7EE007AA0
:1005E00007EE904AF8EEE77A67EEA87ABDEEE78A62
:1005F000B8EEC88A37EEC88AB4EEC78AF1EE10FAB0
:100600000CD5F4EEC97AF1EE10FA07D517EE900A80
:100610000BF038FD26462F46B0EE487A013445F1FE
:100620000005002D08BF202CDAD180463A4B8946C0
:10063000701E08F1FF31012283E80700F0EE008A06
:10064000394630460BF078FC9FED368A07EE900A6B
:100650004946404627EE888A0BF06EFC07EE100AEA
:10066000C8EE077AB6EE007A67EE877A87EEA87A48
:1006700087EE290A03B0BDEC048BBDE8F08F01289A
:100680000ED0294B93FBF2F3022B39DC4FF480712F
:1006900001FA03F3D917019100939FED248A0AE030
:1006A0004BF680339A42CCBF4FF480734FF4007303
:1006B0000093002301934FEAE2794B46144800214E
:1006C00090460BF077FC00F0070201F00043002A8F
:1006D00073F100040ADB012A73F10003BFF6EDAEEB
:1006E0000B4C002517E79FED120AC3E712F1FF320A
:1006F00062F007024FF0FF33013243F10003EAE7F3
:100700004FF4806100238DE80A00C6E71000000066
:1007100040420F0000D8B80520050220001BB74B4F
:1007200000008043001BB74C007701002000000050
:10073000000000002DE9F047584C2568002D6ADBC9
:10074000574D2E68002E66DBDFF88CC1DFF88CE198
:10075000544F002626602E60CCF80000CEF8001022
:100760003A60002859D1504F504E514D3860C3F176
:100770000104A40744F00074012737602C60D507FA
:100780004C4C4D4E4CBF4FF440354FF48035013941
:1007900025600C0204F4F85444F4803545F01A0541
:1007A0003560002865D0D6F800C0DFF820E1DFF81A
:1007B00030A1DFF81C919EF808E0DFF818810F06E1
:1007C00007F0F85709043C4301F4F8114CF0010715
:1007D000376021430026CAF80010C9F80060374E80
:1007E0009B074EF0A0640127C8F8007033603460A6
:1007F0009207334B4CBF4FF440324FF480321A60B3
:10080000304B1D6018B11A6842F001021A602E4B7D
:100810001960BDE8F087BDE8F08780354FF0864469
:100820002C602C68002CFCDB284CDFF8B8E0266834
:100830006568277A1C4C3603C5F30B0506F47F2642
:100840002E43C3F10105CEF80060AD07184EAEF59A
:10085000807E4FF0000CC4F800C045F00075012404
:10086000CEF800403560346844F0A0643C43346006
:1008700085E70E0606F0F85609043443144FDFF8F6
:1008800060E0144E01F4F81121430C4CCEF8001036
:100890009B073860012737602360A9E700F002401A
:1008A00080F002400C05022060F0024004F002409B
:1008B00008F002400CF0024010F0024088F00240C4
:1008C0008CF0024090F0024094F00240200502209B
:1008D000E0F0024084F002401C05022014050220D2
:1008E00014F0024004F10240012870B40FD0022835
:1008F00001D070BC70470E4C0E480F490F4A4FF4A0
:1009000080632360036070BC0B60136070470C4E03
:10091000074D0C4C084809494FF4C0634FF48062FE
:1009200033602B602360026070BC0A60704700BFB8
:1009300018B004401CB0044014B004402CB0044073
:100940000CB0044008B004400D4A10B513680D4CBB
:1009500001332068136000F00FFA206800F0D8F926
:10096000094B0A4A1B68126803EBD37302EB63015D
:10097000884228BF1146064800F072FE10BD00BF35
:100980002413FF1F1413FF1F08050220180502205F
:100990001813FF1F2DE9F84F414C2468002C58DB39
:1009A000DFF81CB13F4CDBF80060206001FB06F76C
:1009B000002F3D4CDFF80CA1B8BF073701EBD17910
:1009C000FF104FEA690909FB06FE2760374FBEF1A9
:1009D000000FB8BF0EF1070E804638681D464FEA7B
:1009E000EE030C46CAF80030002850D0304B1B688C
:1009F0009B0730D4321EB8BF0732D2102D4900F009
:100A0000F5F8DBF800303868002BB8BF0733DB108F
:100A10002246414600F01EF9002CB8BF0334A41052
:100A20000223CAF80440CAF80830386800F048F9D0
:100A3000386800F04BF92049386800F07BF93868D5
:100A40000C2100F069F9002D03DD2D011B4BEDB2E7
:100A50001D70BDE8F88F321EB8BF0732D21015499D
:100A600000F0DCF8DBF800303868002BB8BF073343
:100A7000DB104A46414600F007F9002CB8BF0734A6
:100A8000E4100423CAF80440CAF80830CDE7104641
:100A900000F054F838600028DBD0DBF80060A5E7F0
:100AA00080F0024018050220080502201413FF1FE1
:100AB0000C050220A0F00240490900001DE400E0FE
:100AC000140502201813FF1F024B186808B100F02C
:100AD00009B970471413FF1F024A136843F010430B
:100AE0001360704780F0024008B5064B186840B1AB
:100AF00000F0F2F8044A136843F0007343F0010376
:100B0000136008BD1413FF1F80F002400848094914
:100B10000268094B42F0020202600A68822042F039
:100B200002020A6018601A6842F480621A60704714
:100B30003C8004404080044000800040264A002859
:100B400002EA0002B4BFC31C0346002AF0B523F03A
:100B5000030339DB214FC2F103023C88134444FAFA
:100B600003F111F0010134D103F00F0202F18042D0
:100B700002F50142012615789E4005F00F0E344320
:100B800070453C8025D165F07F05002B157020DB7A
:100B9000134D144E144F03F10072180102F59062C8
:100BA00052012C182A50DDB2A36011609180D180CF
:100BB0009160D16011619182D18291619183D183E1
:100BC000676035702046F0BD013A62F003020132E1
:100BD000C0E70020F0BD00BF030000802813FF1F06
:100BE0002C13FF1F1C80004004800040531E012B6B
:100BF00010B404D9042A02D05DF8044B704703688E
:100C0000D401D888196004F4E061014300209A609F
:100C1000D9809880D8605DF8044B7047531E012B33
:100C200010B404D9042A02D05DF8044B704703685D
:100C3000D8881960D10140F4C05001F4E061042467
:100C40000143520000209C80D9809A60D8605DF8F2
:100C5000044B704730B45C1E012C03D9042B01D027
:100C600030BC70470068C4880161C3F34205594233
:100C70002C4302FB01F192B2C48083828161C28263
:100C8000C28330BC704700BF70B45C1E012C03D916
:100C9000042B01D070BC704700685400C588016106
:100CA000C3F34206614292B246EA050403FB01F136
:100CB000C48083828161C282C28370BC704700BFDE
:100CC0000268938B43F00203938370470268938B0F
:100CD00043F0040393837047014B027A1A70704704
:100CE0001B800040014B027A1A7070471A80004046
:100CF000024A136843F020031360704700800040ED
:100D0000024A136823F020031360704700800040FC
:100D100003681869704700BF836803F1804303F5D7
:100D2000043301F03F0141F0800100221A70197074
:100D3000704700BF82680E4B1340002B30B412DBAB
:100D40005A11920002F1604203F11005094C02F5BC
:100D5000614203F01F03012000FA03F344F8251059
:100D6000136030BC7047013B63F00F030133E7E7CA
:100D70000F0000800002FF1F014B027A1A707047BB
:100D80001F800040044A05491378002043F02003E7
:100D900013700860704700BF0DC007401CD00340AF
:100DA000F8B5434C434A23684349444F444E454DAC
:100DB00043F000532360136843F4807304461360C8
:100DC000152008F0B9FD404BDFF820C1DFF820E125
:100DD0003E493F4820221A704FF40013CCF80030EF
:100DE000CEF8003000233B7033702B700B70037013
:100DF000A0F554307B7173716B714A71026835498B
:100E0000DFF8F0C0DFF8F0E042F0806202600A68CC
:100E100000F54050A7F54B37A6F54B36A5F54735FD
:100E2000A7F57E77A6F2F536A5F2FA35083042F03E
:100E300080420A60284ACCF80030CEF800303B608F
:100E400033602B6003601068244D254FA1F51F41CE
:100E5000AEF53F4EF839AEF1E80E20440860DEF8FA
:100E60000010204C204841F00401CEF800106979B0
:100E700002F5822201F0DF0169710132022139702D
:100E8000117801F0F8011170117806F5533606F269
:100E9000F63641F00401117033701378236823F0A3
:100EA00002032360036843F00403036030BFF8BD0E
:100EB0003C80044010D00340850D000000C0074076
:100EC00001C0074002C0074015E400E003C007402E
:100ED00004C007400070044000D0034000400640BA
:100EE00000E0074010E000E010ED00E080E200E0EC
:100EF00000E100E0009004400490044000207047AE
:100F00004FF0FF30704700BF024A1368013313608F
:100F1000704700BFC00302202DE9F04F00F51739DC
:100F2000B9F9C880B9F9CA309845D8BF08F59672A2
:100F30009BB2CCBFC3EB0802D21A92B2402A1D4624
:100F400032DD09F1D00BDE4640264FF0000A454560
:100F50001ED00135ADB2B5F5967F20D22F460FFADF
:100F600085FC00EB870707F51637BC6964B1231FC2
:100F7000AEF1040204F5FE7453F8041F42F8041F96
:100F80009C42F9D1C7F818A0A9F8CAC00EF5007E96
:100F9000013EB6B2002EDAD15846BDE8F08F4FF0D0
:100FA000000C67466546DCE70020BDE8F08F00BF17
:100FB00000F517300023A0F8CC30704710B5054B72
:100FC000C0F8B834044600F5976002F015F92046E1
:100FD00010BD00BF98370100836C13B1184604F0B0
:100FE0003BBAC06C08B102F035BB4FF0FF30704720
:100FF000836C13B1184604F007BBC06C08B103F052
:1010000091BC7047826C62B1137803F0080303F05F
:10101000FF0003B3D3695069181A48BF6FF000404E
:101020007047C16CC1B191F8313003F0080303F08F
:10103000FF0083B1D1E90423D1E90001101A30B4D3
:1010400063EB010100256FF000448D4208BF84422C
:1010500000D2204630BC70470846704700B5836C0C
:1010600083B08DF8071043B1184601220DF1070136
:1010700004F062FB03B05DF804FBC06C0028F9D0FB
:1010800001220DF1070103F0FBFD03B05DF804FB45
:1010900000B5836C83B063B1184601220DF10701DE
:1010A00004F00CF901280CD19DF8070003B05DF89D
:1010B00004FBC06C28B101220DF1070102F0F4F924
:1010C000F0E74FF0FF30F1E770B400F51736B6F9EE
:1010D000CC5005B3B6F8C850B6F9CA3001352DB2B8
:1010E000B5F5967FA8BF0025AB4217D005F516438E
:1010F000063300F1180202EB452240F8232001F5E7
:10110000FE74043A0B1F53F8041F42F8041FA34255
:10111000F9D1A6F8C850284670BC7047436801331F
:1011200043604FF0FF35F6E770B5044608460D46BC
:101130000CF046F823680246294620465B68BDE865
:101140007040184738B5044608460D460CF038F88C
:101150002368024629465B68204698470546204694
:1011600009F0F4FE284438BD2DE9F047C54EC64BC2
:10117000C64AC74FC74CDFF820C3DFF820E3A6FB01
:101180000156360CA3FB018506F1040AA2FB01827D
:101190006D09AAFB0789D20AA3FB0573A4FB02749D
:1011A000C9EB0A0709EB57075B09BF082409C3EB22
:1011B0000313C7EBC70704EB4408C7EB0A07A5EB0B
:1011C0008304C5EB0515A2EBC8020137A1EB85012D
:1011D000002380E81200876182601C4640F26D198E
:1011E00064274FF4C8780DE0C90908FB1121002DD0
:1011F0006CD1002914BF4A464FF4B77213449E4283
:1012000011D3013404F2B272AEFB02514D096445B0
:1012100007FB152502D012F0030FE5D040F26D1246
:1012200013449E42EDD29C4A04F2B2759442456149
:1012300000F09A8015F003074BD06FF4B674234486
:10124000F21A1E2A40F2EE80A2F11F031B2B40F27D
:10125000F980A2F13B031E2B40F2F780A2F15A0362
:101260001D2B40F2F580A2F178031E2B40F2F38093
:10127000A2F197031D2B40F2F180A2F1B5031E2BC2
:1012800040F2EF80A2F1D4031E2B40F2ED80A2F1D8
:10129000F3031D2B40F2EB806FF4887902EB090316
:1012A0001E2B40F2BB80A2F598731D2B40F2E58007
:1012B000A2F5A7731E2B40F2DD806FF4B67842448E
:1012C0000D21561CC6600161BDE8F0874FF4B7726E
:1012D00094E7724AA2FB05125409642101FB1454DD
:1012E000D2094FF4C871002C76D101FB12510029AC
:1012F00040F08980A3F5B773F61A1E2E40F2C08025
:10130000A6F11F021C2A40F28780A6F13C021E2A89
:1013100040F28A80A6F15B021D2A40F28780A6F186
:1013200079021E2A40F28880A6F198021D2A7FD9F0
:10133000A6F1B6021E2A7DD9A6F1D5021E2A7FD9B2
:10134000A6F1F4021D2A79D9A6F589721E2A66D95A
:101350006FF4987572191D2A4AD80A210131561C5A
:10136000C6600161BDE8F0876FF4B6721344F61AE7
:101370001E2E56D9A6F11F021B2A4DD9A6F13B02FB
:101380001E2A51D9A6F15A021D2A4FD9A6F1780278
:101390001E2A51D9A6F197021D2A49D9A6F1B502F4
:1013A0001E2A47D9A6F1D4021E2A49D9A6F1F30272
:1013B0001D2A43D96FF4887C06EB0C021E2A2ED915
:1013C000A6F598721D2AC8D9A6F5A7721E2A18D9A3
:1013D0006FF4B677F21973E7A3F5B77301FB1251F7
:1013E000F61A002989D01E2E8AD832463946B5E72A
:1013F0006FF4A773F2181E2A88BFA6F5B7723FF6DE
:101400005FAF0B21AAE76FF4B6710B44F61A1E2EDC
:10141000B0D832462146A1E701219FE71A460921AB
:101420009CE73246002199E7022197E7032195E7DF
:10143000052193E7062191E704218FE708218DE735
:1014400007218BE71A46012188E71A46022185E722
:101450001A46032182E71A4604217FE71A4605212E
:101460007CE71A46062179E71A46072176E71A46ED
:10147000082173E71A460B2170E71A460A216DE727
:1014800032466BE707452EC289888888C5B3A2918A
:1014900025499224ABAAAAAA4EF8FFFF1F85EB515B
:1014A00030B51F4B1B688BB005460C4601A819468A
:1014B000FFF75AFE069B0599049AA3F2BC739BB2F0
:1014C0007F2B02D8C8B20C281FD9002303982B8089
:1014D000C3B2172B0299019A13D8CBB23B2B10D869
:1014E000D3B23B2B0DD8C302490101F4FF5103F4E1
:1014F000FF230B43C2F3460213439BB223800BB07E
:1015000030BD002323800BB030BDD2B21F2ADCD8FF
:10151000490101F4FF510A4342EA43239BB2D5E754
:1015200000D0034042680169C3682DE9F0430468B4
:101530008568C2EB021204EB82024FF4616808FB7B
:1015400005284A1E03F1FF342DD0012A03F11E05A0
:1015500068D0022A03F13A0564D0032A03F1590541
:1015600060D0042A03F177055CD0052A03F19605C3
:1015700058D0062A03F1B40554D0072A03F1D30545
:1015800050D0082A03F1F2054CD0092A03F58873DC
:101590004AD00A2A04F5987346D00B2A04F5A7739B
:1015A00042D004F26D140229466903DD002E01DDEC
:1015B000B2073BD040F2B2739E422BD06FF4F66379
:1015C0001E44244F2448012340F26D194FF0640E4D
:1015D0004FF4C87C0CE0C9090CFB1121FDB90029AE
:1015E00014BF4A464FF4B7720133B342144411D0CA
:1015F000BB4203F2B27207D0A0FB02514D0912F0B8
:10160000030F0EFB1525E6D0013340F26D12B342F5
:101610001444EDD1114800FB0480BDE8F0834FF481
:10162000B772E1E72C46BEE71C46BCE70A4AF3174F
:1016300082FB0612C3EB6211642000FB116139B911
:10164000C3EBE2134FF4C87202FB1363002BB1D15A
:101650000134AFE74EF8FFFF1F85EB5180510100C9
:10166000294AF8B5294C1368208801331360D8B98A
:101670000123238001F57F700B1F53F8042F42F3E1
:10168000D71283421A60F8D1214A002351F833005F
:1016900042F8040F0133802BF8D11E4EB6F9CC303E
:1016A0003BB900232380F8BD1B4A13680133136044
:1016B000F8BDB6F8C850B6F9CA2001352DB2B5F557
:1016C000967FA8BF0025AA42A6F5173318D005F5C6
:1016D0001641063103EB4527183743F82170384689
:1016E0004FF400720D4907F08DFE002DA6F8C8508A
:1016F000D7DA0B4A13680133136000232380F8BD47
:101700005A6801325A60F4E73417FF1F8224FF1F22
:1017100058010220848001203017FF1F5C01022045
:101720004017FF1F704700BFF0B54B4B1E688BB0D2
:1017300004460F4601A83146FFF716FDA188E3884D
:10174000BDF80C2099424CD28A4208D39A422CBF51
:101750000020012018B1002F47D10BB0F0BD258922
:10176000608985425DD2AA425DD2814266D98242B9
:1017700069D2ED1A39493A4C3A48A1FB0672120C6B
:1017800004FB12664FF4616202FB136303F5A83396
:1017900003F5C07383FB0167002D03EB07064FEAD7
:1017A000E371B8BF1835C1EB264104FB113302FBCE
:1017B00005F2D51A294609F071FB2A4809F0C6FB43
:1017C000294B04221A600024E0B20021013408F001
:1017D0002BFA182CF8D128460BB0BDE8F040FFF7E3
:1017E000DFBA8A42B2D3002FB7D0218863881E4A5D
:1017F0000B44C3EB03139B000421B6FBF3F503FB7F
:1018000015655D1B11600024E0B20021013408F071
:101810000BFA182CF8D128460BB0BDE8F040FFF7C2
:10182000BFBAAA4297D282422CBF4FF0000E4FF0AF
:10183000010EBEF1000F8ED1814298D8824202D3B0
:1018400003460D1A96E78A422CBF00220122002A85
:101850008FD003460D1A8DE700D0034007452EC2F6
:10186000805101009808FF1F88F00F40F0B44F4AE4
:101870004F4B504C41260E258021167025701A467C
:10188000197013784A491C06FBD54B4B4B4A1C7800
:101890004B4E1470023B3678444C1B78454D5670C5
:1018A000937041270F26802327702E700C460B70F3
:1018B00023781B06FCD513783F4D414C41492D78C8
:1018C0002478097851711B09092B8CBF37333033C9
:1018D000D57014710370137803F00F03092B8CBFBC
:1018E000373330335F214370817053781B09092BE4
:1018F00051D93733C370537803F00F03092B8CBFD2
:10190000373330335F210371417193781B09092B01
:1019100049D937338371937803F00F03092B8CBFB8
:10192000373330335F21C3710172D3781B09092B20
:1019300037D93733D178437201F00F03092B8CBFAD
:1019400003F1370103F13001137981721B095F2123
:10195000092BC17223D937331179037301F00F03B7
:10196000092B8CBF03F1370103F130015379417327
:101970001B095F21092B81730FD830335279C37350
:1019800002F00F03092B94BF303337330022037466
:101990004274F0BC70473033ACE73733EEE7303396
:1019A000DAE73033C6E73033B4E700BF0700024060
:1019B00000000240060002400A0002404417FF1FD8
:1019C0000900024008000240F0B54F4C4F4D50490D
:1019D0002B88504F504E8DB02046672209F0CEFA2A
:1019E0006B884E492046702209F0C8FAAB884C49F2
:1019F0002046692209F0C2FAEB884A49204675223E
:101A000009F0BCFA2B8948492046762209F0B6FA3B
:101A10006B8946492046662209F0B0FA05F10C03AD
:101A20006E222046424909F0A9FA396803A8FFF757
:101A30009BFB0699079B089A009130463D490BF0A5
:101A4000F7FA3346642220463B4909F097FA396891
:101A500003A8FFF789FB0399049B059A0091304680
:101A600036490BF0E5FA334674223549204609F031
:101A700085FA3046FFF7FAFE6D22034631492046CB
:101A800009F07CFA204609F061FA17212E4807F088
:101A9000B9FD204609F05AFA30212C4807F0B2FD72
:101AA000204609F053FA2021294807F0ABFD2046D3
:101AB00009F04CFA4621274807F0A4FD204609F01A
:101AC00045FA2621244807F09DFD204609F03EFAFC
:101AD0004521224807F096FD204609F037FA3221C9
:101AE0001F4807F08FFD204609F030FA2B211D48D2
:101AF00007F088FD204609F029FA20460DB0BDE820
:101B0000F04009F023BA00BF9808FF1F3407FF1FF9
:101B10007C38010000D003405C24FF1F9038010096
:101B2000A4380100B8380100D0380100E4380100C1
:101B3000F83801000839010018390100283901007E
:101B400038390100483901005C390100743901005D
:101B5000A8390100CC390100143A01003C3A0100D7
:101B6000843A0100B83A01002DE9F043A04DA14E9E
:101B70008DB007F01DFD0028FBD007F0DDFCC4B2DE
:101B800021469D480BF0A8FA0028F2D03F2C0ED039
:101B900046DD612C00F08A80782CEAD1974809F064
:101BA000EFFA00B20028E4D00DB0BDE8F08307F0F2
:101BB000FFFC0028FBD007F0BFFCC4B221469048D0
:101BC0000BF08AFA0028D4D0643C122CD1D801A39F
:101BD00053F824F0751D0000731B00009B1D0000CE
:101BE000A91D0000731B0000B71D0000731B00003F
:101BF000731B0000731B0000C51D0000D71D0000F3
:101C0000731B0000E31D0000731B0000731B00002A
:101C1000731B00002D1E0000431E0000511E00001B
:101C2000212CA6D107F0C4FC0028FBD007F084FCCF
:101C3000C4B2214673480BF04FFA002899D0643C97
:101C4000122C2FD8DFE804F00A2E3E472E502E2EFD
:101C50002E2E592E682E2E2E718D35006748DFF8F6
:101C6000B49109F08DFA8046644809F089FA074674
:101C7000624809F085FAD9F80010044603A8FFF776
:101C800073FABFB21FFA88F3A4B203A808930797A8
:101C90000694FFF747FC002310222B603360C9F83D
:101CA00000002A60584B01221A8062E7FFF78CFE81
:101CB0005FE7524809F064FA544B1881524B0122F5
:101CC0001A8056E74D4809F05BFA504B58814E4B4D
:101CD00001221A804DE7494809F052FA4B4B18800F
:101CE000494B01221A8044E7444809F049FA474B1E
:101CF0009880454B01221A803BE7454C271D07F091
:101D00001BFC04F8010FBC42F9D1404B00221A74AD
:101D10003D4B01221A802CE7384809F031FA3B4B41
:101D20005880394B01221A8023E73448DFF8E490C9
:101D300009F026FA8046314809F022FA07462F4872
:101D400009F01EFAD9F80010044603A8FFF70CFAB0
:101D5000BFB21FFA88F3A4B203A8059304970394B3
:101D600097E7264809F00CFA284BD880264B012229
:101D70001A80FEE6274B03A81968FFF7F5F90699C4
:101D80000091079B089A244924480BF051F9234AF3
:101D900023491A4809F0F2F8EBE61C4B21495A890D
:101DA000164809F0EBF8E4E6184B1E491A88134868
:101DB00009F0E4F8DDE6154B1A499A880F4809F056
:101DC000DDF8D6E61548FFF751FD154902460B48E8
:101DD00009F0D4F8CDE6144A1149084809F0CEF8C4
:101DE000C7E60A4B0F495A88044809F0C7F8C0E60D
:101DF00014D0034004D00340E43A01009808FF1FC8
:101E0000EC3A0100083B01004C1FFF1F3407FF1F85
:101E10003F07FF1F00D00340083901005C24FF1F6B
:101E2000003B0100F83A01004007FF1F0C4B03A8DC
:101E30001968FFF799F903990091049B059A0949DC
:101E4000A2E7094B0949DA88094809F097F890E6B2
:101E5000054B06491A89064809F090F889E600BF43
:101E600000D00340283901003407FF1FF83A010071
:101E70009808FF1F0546D0F8840408B50C46B8B191
:101E800003685B6A984798B9D5F878343BB1DB7939
:101E900003B1FEE720461A49FFF754F9F9E7D5F8F0
:101EA0007C34002BF6D093F83C34002BF1D1F1E7D1
:101EB00014492046FFF738F9D5F88404E0B10368E7
:101EC0005B6A9847014600231022204609F064F817
:101ED0000D492046FFF728F9D5F8840470B103684E
:101EE0009B6A9847C1B200231022204609F054F89B
:101EF000204609F02BF8CCE72721E4E70146F2E77A
:101F0000243B0100143B0100203B0100074C08B5B5
:101F100005460E4620460649FFF706F9314620469B
:101F2000FFF710F921462846FFF7A4FF9808FF1F86
:101F3000383B01002C4B1968002940D02DE9F041B5
:101F4000012388B00446294A294801F069F998B369
:101F5000284E04F10C07B0460EE00422694603F057
:101F6000ADF90546042D3AD122462349023468468C
:101F70000BF084F8A7420CD0D6F800050028ECD16D
:101F8000D8F8040558B30422694601F08DFA0546D5
:101F9000E8E7D6F80005174BC8B12A46394603F0E2
:101FA0008DF904281BD1D6F80005124B40B103F07F
:101FB00087FB0F4801F020F908B0BDE8F0817047B9
:101FC000D3F804050028F4D002F0CAFDF1E7D3F8F5
:101FD000040520B12A46394601F066FAE1E70749CF
:101FE0000448FFF793FF00BF60030220403B01005D
:101FF0000824FF1F501FFF1F583B01004C3B0100EE
:102000002DE9F0432E4B196889B0804621B1522347
:102010002C4A2D4801F004F92C4EA8F10204B146D7
:1020200008F10A0707E02A46694603F085FB854266
:1020300042D1A74216D034F8022F254968460AF04B
:10204000F7FF68460BF0BCF80546D6F800050028F7
:10205000E9D1D9F804050028E9D02A46694602F0FA
:102060000FFEE4E7D6F80005184B08F10C0180B12B
:10207000042203F061FB04281ED1D6F80005134B9F
:1020800070B103F01DFB104801F0B6F809B0BDE8CF
:10209000F083D3F8040578B1042202F0F1FDEAE7F9
:1020A000D3F804050028EED002F05AFD064801F0EE
:1020B000A3F809B0BDE8F08306490448FFF726FFFE
:1020C00060030220403B01000824FF1F501FFF1F38
:1020D0005C3B0100643B01002DE9F04FB44BB54A75
:1020E000DA63022108468FB007F09EFD4FF47A7044
:1020F00007F0F8FDDFF8E0A20121172007F094FDBA
:102100000422AD4BCAF800201B68DA0740F1EA80D0
:10211000AA4DAB4B2A8880204AF6444101245861DD
:10212000D9609C60002A00F00B81A64FA648A74CFE
:10213000DFF8F892A64DA74E0023FB81FFF7FAFEC9
:1021400001210D2007F070FD23680D930D9ADFF833
:1021500088E2D9F8003002F2DC522146202003F553
:10216000FA7C04E00B680B930B9B63453AD223681F
:102170000C930C9B9342F5D3974B984D984EDFF8F8
:10218000B08220221A6000218F48FFF7CDFA01218A
:102190000D2007F049FD01210D2007F045FD8C4A77
:1021A000DFF834E28B48D9F80030202103F5FA7CBF
:1021B0002B784BB13378DB0706D52368D8F800A01D
:1021C000CAEB03030E2B16D823680793079B6345BE
:1021D000EED3D2F800C01CF0200F64D10160C9F822
:1021E0000030E3E7D5F800C01CF0200F5ED130606E
:1021F000C9F80030B3E716217A4807F003FA7A48A5
:1022000008F0A4FE02230093784A79484FF4007343
:102210004AF6444100F064FC03900346002848D18C
:102220007449754A754E0B60002509217448156084
:10223000356007F0E7F96C4808F088FE6C4800F05C
:102240008FFC4FF4967007F04DFD0C216D4807F0A0
:10225000D9F9654808F07AFEDFF8D8E1BEF8CA205F
:10226000BEF9C860B2420ED02846531C9BB2B3F5EB
:10227000967F28BF002303F5164106319E429AB28D
:1022800047F82100F1D1236805935F490598AEF81E
:10229000CA20012300220860FA81BB81AEF8CC304D
:1022A0000FB0BDE8F08FCEF8001098E7CEF8000030
:1022B0009EE707EE900AB8EE677ADFED547AC7EE34
:1022C000276A16EE900A09F0CBF937A3D3E9002369
:1022D000CDE900014E49444808F050FE07F096FA57
:1022E00001239DE7DFF844913C4D3D4E374CDFF82C
:1022F0004081384F01210D2007F096FC3448D9F871
:1023000000305246202103F57A7E2B7853B1337882
:10231000DB0707D52368D8F800C0CCEB03030E2BEE
:1023200000F28A8023680693069B7345EDD3D0F8AC
:1023300000E01EF0200F2DD01160C9F80030E2E758
:10234000344F07F591662146304606F001FA09211F
:10235000314807F057F9244808F0F8FD3046C7F82F
:10236000846405F021FD324603462C491E4808F0DE
:1023700005FED7F8840448B103685B6A984728B91A
:10238000D7F88414384600F09DFF28B92449214825
:10239000FFF7BCFD3960D0E7224B234A2C801A603E
:1023A000C3E600BFAFF30080000000C0CC0C464085
:1023B0000002FF1F090F0000D0F00F402C15FF1F77
:1023C0003015FF1F8424FF1F3407FF1FC0030220A6
:1023D00090F00F4084F00F4088F00F40A4040220DA
:1023E000BC030220603C01009808FF1F4C17FF1F30
:1023F0008024FF1F3C17FF1F3817FF1F5824FF1FA3
:10240000443C0100503C01005801022000007A4485
:10241000183C0100501FFF1F743B0100803B01006E
:10242000943B010064030220A11400007C24FF1FE0
:10243000340502208480012000210D2007F0D0FB0C
:10244000744B75481B8880214AF64442012741613C
:10245000C2608760002B73D0704FDFF8ECB170481A
:102460004FF0000AA7F80EA0FFF764FDFFF7ACFAE3
:10247000ABF800A0FFF778FB0028FBD001218246D3
:102480000D2007F0D1FB23680A930A9A6549DFF80B
:10249000BCE1D9F8003002F57A72202003F1640C17
:1024A00004E00B680893089B63453AD223680993BC
:1024B000099B9342F5D35C4B20221A60BBF9003094
:1024C000A3B1544B54491B8880224FF0010B4A6141
:1024D0004AF64442C1F808B0CA60002B63D000231A
:1024E0004F48FB81FFF78CFDFFF76EFABAF1000F42
:1024F0007FF749AE4C4BCAEB0A1A04224FEA8A0B0B
:102500001A604FF0000A5FFA8AF000210AF1010A0E
:1025100007F08AFBBAF1180FF5D15846FEF740FCD8
:1025200031E6DEF800C003931CF0200F05D03E4BCF
:102530001860039BC9F80030B0E73C4B1860F8E71F
:10254000DFF800A10AF5916B3946584606F000F90C
:102550000921374807F056F8364808F0F7FC584686
:10256000CAF884B405F020FC5A4603463249314883
:1025700008F004FDDAF8840400283FF407AF03688C
:102580005B6A984700287FF401AFDAF8841450465C
:1025900000F098FE00283FF4F9AE284B1D49284A68
:1025A0000F801A6058E7274B03F591621046594691
:1025B000039206F0CDF809211D4807F023F81D48C5
:1025C00008F0C4FC039A104642F8042C05F0ECFB1A
:1025D000039A19490346174808F0D0FC194BD3F861
:1025E000840400283FF4D2AE03685B6A9847002851
:1025F0007FF4CCAE134BD3F88414184600F062FE7F
:1026000000283FF4C3AE034A0C4BA2F800B00C4ABA
:102610001A6064E72C15FF1F3015FF1F8424FF1F6D
:102620003407FF1FC003022088F00F4084F00F40E2
:10263000743B01009808FF1F803B010064030220E7
:10264000A1140000501FFF1F4C1FFF1F90F00F40F0
:10265000AE4B1B68002B65D02DE9F04FAC4CAD4D57
:102660002368A7B0C3B12B68012B04DD022B18D05F
:1026700027B0BDE8F08F0821A74806F0C3FFA748A0
:1026800008F064FCA64800F075FAA54800F07AFA54
:102690000121A448FFF748F82B68002BE6D102235C
:1026A0002B60A04AA04B11881B6808934EF660234C
:1026B000089A03FB01F303F6B83393421FD39B4FF1
:1026C0003B88002BD4D19A4EB268F3890792114609
:1026D00001224FF020783A80B8FBF1F2069253B312
:1026E000022B76D0032B00F0DB80B6F90C20D2B1A0
:1026F0000022042B3A80BBD101232B60B8E70123D1
:102700000B218C48236006F07DFF844808F01EFCF6
:102710002B68874A4FF6FF71022B9181CFD027B0EB
:10272000BDE8F08F7047844900230422A1F8CC3023
:102730003B80F281E0E7814B09A81968FEF714FDA0
:1027400009990A9A0B98049103920C990D9A0E9B81
:102750000290019100927A497A4A12A80AF068FC24
:10276000794B1968002900F09780784C532304F5C1
:10277000976012AA00F054FD002800F08D80D4F874
:102780000005002800F03C81414602F0C3FC00280F
:1027900000F02E8112AA6E49604808F0EFFB282352
:1027A000069A6C495D4808F0E9FBD4F80005674AD1
:1027B000002373617360002800F092804FF4007270
:1027C000654902F0B9FFB0F5007F40F015810223A2
:1027D000F381594BB3F9CA90B3F9C8A0CA45D8BF21
:1027E0000AF596731FFA89F4CCBFC4EB0A031B1BCE
:1027F0009BB2402B7FDD00234FF0400EDFF85C8161
:10280000AC469B467546A2451ED00134A4B2B4F531
:10281000967F3CD2A6460FFA84F90EF5164E0EF1BD
:10282000060E56F82E0060B1031FA8F1040200F551
:10283000FE7053F8041F42F8041F8342F9D146F892
:102840002EB008F500780123013DADB2002DDAD19C
:102850006546002B40F0C8803C4CBDF81C80D4F885
:102860000005002800F0AD8042463C4902F064FFBC
:10287000804540F0C180B8F1000F77D10323F38188
:10288000B6F90C202A4B002A3ADBDB892AE74FF005
:102890000009CE464C46C0E731492C48FFF736FBCD
:1028A0002A4CD4F80005294B98B102F009FF2D48B5
:1028B00000F0A2FC72682C49184808F05FFB002366
:1028C000F381B6F90C30002B3FF42DAF00233B8091
:1028D000CEE6D3F804050028E9D002F041F9E6E796
:1028E000D2F80405002800F087804FF400721A49DE
:1028F00002F0C6F967E7B6F90C30002BE3DA134CA7
:1029000003220023F281B381CBE700BF3C17FF1FF6
:102910003817FF1F5824FF1F783C01009808FF1F3D
:102920008024FF1F3407FF1FC00302205401022030
:102930008424FF1F843C01008480012000D00340D8
:10294000C83701004007FF1F60030220501FFF1F10
:10295000BC3B0100E83B01003015FF1F5481012002
:10296000D43B01000824FF1F043C0100F389DFF879
:10297000C480022B84D1D8F81430069A01339A42CD
:10298000C8F8143027D0234AA2FB0312D20802EB66
:102990008202B3EB420F05D11F49204808F0EEFA3E
:1029A000D8F814301B4AA2FB0312520A02EB82022F
:1029B000B3EBC21F02D1194808F0C8FA06F026FF8F
:1029C0005EE7D4F8040500283FF452AF42461449AC
:1029D00002F056F94CE7B8F90C300322002BA8F8A6
:1029E0000E20BFF65EAF8BE70E4BA3F8CA9033E71D
:1029F0000D490E48FFF78AFA0D490C48FFF786FA91
:102A0000D4F804050028F3D04FF02072002301F021
:102A1000B9FFBCE6CDCCCCCCC43B01009808FF1F6D
:102A20005481012084800120A43B0100501FFF1F1E
:102A3000643B01008424FF1FF8B5204B204CC3F8F1
:102A40008844262483F8A8441E481F4F1F4DC3F80E
:102A5000980400244FF47A761D4A1E49C3F8B074D6
:102A60001846C3F8C064C3F8B854C3F87844C3F830
:102A70007C4483F8944483F8AB44C3F8AC4483F8B3
:102A8000BC4483F8C444C3F80045C3F8044509F0C6
:102A9000A5FC114B11485C6003F517324FF400415F
:102AA0009C81DC811C615C6118609960A2F8C8405F
:102AB000A2F8CA40A2F8CC40F8BD00BF501FFF1FCB
:102AC0007C3D0100243D01000110013898370100D0
:102AD0003007FF1FBD0F00008424FF1FBC3701001B
:102AE000F0B52DED028B83B00C4615461E46BDF8A1
:102AF0002870FDF7C3FC224620210520FDF7C6FC07
:102B0000F7EE007AB4EEE70AF1EE10FA20D4022FC5
:102B10004FF0000394BF1A46022220210120B0EE9C
:102B2000408AFDF707FE0220FDF7DEFEFDF7EEFF0F
:102B30002846314605230222FDF72CFFFCEEC87A19
:102B400017EE900ACDED017A03B0BDEC028BF0BD1B
:102B500000231846019303B0BDEC028BF0BD00BF0B
:102B600008B5FDF7C1FFFEF7CBF8BDE80840FDF75B
:102B7000B3BF00BF08B5FDF7A7FFBDE80840FEF7EB
:102B8000B7B800BFFDF772BC10B4047F4160022CDF
:102B9000C26003D05DF8044B07F0E6BF83685DF8C0
:102BA000044B18472DE9F0410468E56815F0807F73
:102BB000794D256052D1DF0740F1B380002900F044
:102BC000E3800D78012B18BF45F0004565630131A6
:102BD00090F82C8003F1FF3C48EA0828BCF1000F74
:102BE00000F0A88021B14D7811F8028B45EA082841
:102BF00045682E7ABCF1020F06F1FF364FEA063621
:102C00000CBF48F0805548F01045B6B26563ACF192
:102C1000020C08E00AB114700132013B05F4704562
:102C2000B54216D90468E56A15F0F00FF6D0A46B2A
:102C300013F0010F17464FEA242EEBD11AB107F813
:102C400002EB54703A4605F47045B542A3F1020315
:102C5000E8D8BCF1000F6DD00468C3E7DD074CD5A0
:102C6000002900F089800D78012B18BF45F0004540
:102C70006563013103F1FF3E90F82CC0BEF1000FF7
:102C800041D029B191F801C00D78023145EA0C2CF0
:102C900045682E7ABEF1020F06F1FF364FEA06367E
:102CA0000CBF4CF080554CF01045B6B26563AEF1E8
:102CB000020E08E00AB114700132013B05F47045C0
:102CC000B54215D90468E56A15F0F00FF6D013F097
:102CD000010F1746A46BEDD122B107F8024B241265
:102CE00054703A4605F47045B542A3F10203E9D8A1
:102CF000BEF1000F07D00468C3E79E4690F82CC0D1
:102D0000BEF1000FBDD11BB30468E16A11F0F00FF2
:102D1000FBD0A16BDC071DD50AB111700132013B5C
:102D2000F1E790F82C809C4648EA0828BCF1000F97
:102D30007FF458AF63B10468E16A11F0F00FFBD083
:102D4000DE07A16B0FD50AB111700132013BF1E72B
:102D5000BDE8F0812AB114460D1204F8021B55702B
:102D60002246023BCFE72AB114460D1204F8025B5B
:102D700051702246023BDDE790F82C50012B18BF22
:102D800045F00045656375E790F82C50012B18BF9E
:102D900045F0004565631BE700041F800BB1FFF79A
:102DA00001BF704790F8392090F83800101A70472A
:102DB00090F8383090F839209A4205D95A1C0344CB
:102DC00080F83820187E70474FF0FF30704700BF02
:102DD00090F8383090F839209A4286BF1B18187E38
:102DE0004FF0FF30704700BF704700BF38B5054651
:102DF000B0F85E0090B195F85D301446C3F1210241
:102E000094420CD805F13B001844224606F0FAFA29
:102E100095F85D30234485F85D30204638BD0120AB
:102E200014462871EEE700BFB0F85E306BB190F841
:102E30005D30202B07D8C218013380F85D300120A7
:102E400082F83B107047012303710020704700BFD8
:102E500038B54B4D2A69D478E4B2E10625D5102364
:102E6000D370630620D504F0040404F0FF03002CA3
:102E70005DD044496A6E424C00230B7085F85D308A
:102E8000002A68D0904794F85D30002B63D02B69FE
:102E9000D0229A702B6995F83B201A712B69012278
:102EA00085F85C200222DA7038BD04F0400303F09C
:102EB000FF00002BD7D19379DBB203F060016029CA
:102EC00050D0937803F0100303F0FF01BBB114F06E
:102ED000010439D195F85C3095F85D002849984295
:102EE0004CD9C818013390F83B0081F85C30107160
:102EF0002B69D0229A702B690222DA70D4E785F808
:102F0000601093791E4843F0200393712B6995F864
:102F100039101A791F29D2B2C4D81A4C2478002C3F
:102F2000C0D044180131227680F83910BAE72A69F6
:102F300085F83930C02393702B69124A1979012121
:102F400011700222DA70AFE7C02393702B691A79EF
:102F50000222DA70A8E70122002385F85D2085F8B7
:102F60003B3094E703F0DF039371AB6E23B185F838
:102F7000380095F8390098472A69A2E71471B7E735
:102F8000B407FF1F5C03022038B54B4D2A69D47883
:102F9000E4B2E10625D51023D370630620D504F0F2
:102FA000040404F0FF03002C5DD044496A6E424CD7
:102FB00000230B7085F85D30002A68D0904794F8A4
:102FC0005D30002B63D02B69D0229A702B6995F865
:102FD0003B201A712B69012285F85C200222DA70ED
:102FE00038BD04F0400303F0FF00002BD7D19379E4
:102FF000DBB203F06001602950D0937803F0100336
:1030000003F0FF01BBB114F0010439D195F85C3035
:1030100095F85D00284998424CD9C818013390F8BA
:103020003B0081F85C3010712B69D0229A702B69BB
:103030000222DA70D4E785F8601093791E4843F0D5
:10304000200393712B6995F839101A791F29D2B290
:10305000C4D81A4C2478002CC0D0441801312276F0
:1030600080F83910BAE72A6985F83930C02393709F
:103070002B69124A1979012111700222DA70AFE727
:10308000C02393702B691A790222DA70A8E7012213
:10309000002385F85D2085F83B3094E703F0DF03DB
:1030A0009371AB6E23B185F8380095F839009847D5
:1030B0002A69A2E71471B7E72008FF1F5C0302200A
:1030C00038B54B4D2A69D478E4B2E10625D51023F2
:1030D000D370630620D504F0040404F0FF03002C31
:1030E0005DD044496A6E424C00230B7085F85D3018
:1030F000002A68D0904794F85D30002B63D02B698C
:10310000D0229A702B6995F83B201A712B69012205
:1031100085F85C200222DA7038BD04F0400303F029
:10312000FF00002BD7D19379DBB203F06001602957
:1031300050D0937803F0100303F0FF01BBB114F0FB
:10314000010439D195F85C3095F85D002849984222
:103150004CD9C818013390F83B0081F85C301071ED
:103160002B69D0229A702B690222DA70D4E785F895
:10317000601093791E4843F0200393712B6995F8F2
:1031800039101A791F29D2B2C4D81A4C2478002CCD
:10319000C0D044180131227680F83910BAE72A6984
:1031A00085F83930C02393702B69124A19790121AF
:1031B00011700222DA70AFE7C02393702B691A797D
:1031C0000222DA70A8E70122002385F85D2085F845
:1031D0003B3094E703F0DF039371AB6E23B185F8C6
:1031E000380095F8390098472A69A2E71471B7E7C3
:1031F0004807FF1F5C03022010B50446806C28B10D
:1032000001F02CFF10B10023A36410BDE06C28B1C5
:1032100000F0CEF810B10023E36410BD002010BD13
:1032200000294AD0F8B50446806C0D461F46164664
:10323000D0B101F013FFB8B10023A364D5F87834FE
:10324000FBB104F11001242000F0B0F8002303705A
:10325000437083703246A0643B46D5F8781402F080
:1032600005F840B30120F8BDE06C0028E6D000F07E
:103270009FF80028E2D00023E364D5F87834002BCF
:10328000DFD1D5F87C34D3B104F11001382000F03F
:103290008DF8002380F8313080F8323080F83330F8
:1032A000D5F87C14E0643B46324600F0CDFC0028A3
:1032B000D8D1E064F8BDA064F8BD002070470020BC
:1032C000F8BD00BF70B500260546C0F88014C0F8F0
:1032D000786401464FF48F6000F068F80446466059
:1032E00000F0BAFCC4F8106204F5037000F0B4FCFE
:1032F00084F83C6484F8716484F8726484F87364BC
:10330000D5F88064C5F87C4431462046012200F09F
:1033100001FD70B104F58866304600F049F8214699
:10332000304600F0ADF858B11F4A2B46012013601B
:1033300070BD02463146204600F0ECFC0028E9D181
:103340000026C5F87C6429464FF48C6000F02EF806
:10335000C67180F83C6480F83D6480F83E64D5F81E
:103360008064C5F8780401223146044603F074F8FD
:1033700090B104F23C46304601F070FE21463046E2
:1033800001F07CFF0028CFD100221346C5F8782435
:103390001046054A136070BD02463146204603F0D0
:1033A0005BF80028E5D1EFE760030220084670478C
:1033B00010B5044601F0B6FA002384F8313084F8E1
:1033C000333010BDF0B50878202803D111F8010F73
:1033D0002028FBD05160087800284CD02F282BD013
:1033E0005C2820D0A0F12204E4B21D2C1DD9DFF806
:1033F0008CE04E1C00247C28A0F12005374612D01A
:103400005E2D10D816F8010BA0F12205EDB20134A3
:1034100050B32F2811D05C282EFA05F703D01D2DAC
:10342000E9D8FD07E7D50020F0BD144D25FA04F4D6
:10343000E607DCD50020F0BD0024214408460646FE
:1034400010F8015B202DFAD02F2DF8D01E603CB172
:1034500011F8013D2E2B01D0202B08D1013CF7D1D2
:10346000204610600120F0BD1F602144F0E7FF2CD2
:10347000F6DD0020F0BD1960F3E700BF0101003563
:1034800090F831200AB10020704738B504460D4647
:103490001146382209F078FB4023012084F83130AE
:1034A00084F83300256238BD2DE9F04790F83330B9
:1034B0000446D80782B040F1B2800D465906164640
:1034C00040F1B880D4E90001D4E9042310EB0608E8
:1034D00041F100094B4508BF4245C0F0B180002EC4
:1034E00000F0B080A146F9E80623B04655E013434A
:1034F00071D194F831305B064CBFD0F82C14E169DF
:10350000A16190F83DE4D0F8243402397F0A01FA31
:103510000EF2F9181144BAF1000F48D1B8F5007F46
:1035200045D3D0F81432994241D0B8F5806F59D3C1
:1035300094F8332052064FEA582A07D4012202FA9F
:103540000EFEC7EB0E07BA4528BFBA4699424FEAAE
:103550004A270CD30AEB01029A4208D900F50370FE
:10356000019100F0C1FB002859D0206A0199D0F8E0
:10357000380402685346D2F80CA02A46D0470028E7
:103580004DD038460021D4E9002312184B41B8EB46
:1035900007083D44C4E9002354D0206AD0F83074B1
:1035A0001740C7F3080A002FA1D0A169A9E700F5C9
:1035B0000370002200F056FB88B3CAF50077474538
:1035C00028BF474600EB0A013A46284605F01AFF95
:1035D00038460021D7E794F8333059060FD5A16952
:1035E00001318DE7D0F8380403682A469B68984774
:1035F000A8B14FF4007000214FF40077C3E74A46AA
:10360000A16900F05BFE40B2002808DB02D0206A0E
:10361000A16976E794F8313013F0500F14D194F883
:1036200032304FF0FF3043F0020384F8323002B002
:10363000BDE8F08794F831301A073FF543AF4EE705
:10364000161A4CE74FF00008C8EB060002B0BDE8C0
:10365000F08700BFF0B583B001220DF107010446E9
:10366000D0E900678569FFF71FFF012808BF9DF8B3
:103670000700A56118BF4FF0FF30C4E9006703B031
:10368000F0BD00BF2DE9F04F90F831E0856983B0BF
:103690000446BEF1000F1BD0D0E90001994208BFDB
:1036A000904216461F463BD056EA070307D1002337
:1036B000A3610120C4E9006703B0BDE8F08F1EF0EC
:1036C000080F0AD0D4E90423BB4208BFB24204D297
:1036D000A561002003B0BDE8F08F236A019393F841
:1036E0003DC494F833A00CF1090C5FFA8CFC16F180
:1036F000FF3247F1FF33CCF1200803FA08FB22FA2E
:103700000CF242EA0B02ACF1200B23FA0BF31AF095
:10371000400F42EA030205D0E3691A44A261C8E7F8
:103720000120D7E710F1FF3941F1FF3A29FA0CFCEB
:103730000AFA08F84CEA080C2AFA0BFB4CEA0B0CC4
:103740006245534617D21EF0400F16BF019BE36936
:10375000D3F82C34A361904604F118094A46B8F115
:10376000000FA6D0A169206A00F0A8FD08F1FF387B
:103770000028F3D1ACE750EA0103E4D0CCEB02021D
:10378000E9E700BF2DE9F04F93B090F83140009287
:103790000D469DF87010029106462CB99A4695F890
:1037A000313013F0500F07D1002086F8310086F831
:1037B000330013B0BDE8F08F1346002A00F01781E4
:1037C00018462246514600F069FF95F831300490C2
:1037D000002B40F00181874A0AF10E0382FB03129D
:1037E0001A44DB17C3EBE203029ADBB202F00702D2
:1037F000059302334FF000095FFA83FB42F0400368
:1038000001924C464F46039320220AA92846FFF70F
:103810004BFE00283DD02028C6D19DF828301A063E
:1038200063D4002C5ED12A68A9690791203A0892D6
:103830000134E4B26BB3C02B00F0A480C12B5FD085
:10384000852BE1D138220021304609F09DF99DF801
:103850002C309DF8292086F8302003F03702DB0653
:1038600058BF42F0080286F831202B68296AAA69FD
:103870007262203B3162B36295F83330C3F3801338
:1038800086F82C3020220AA92846FFF70DFE0028D2
:10389000C1D1029B03F04203422B85D1009B002B38
:1038A00082D05C450DD3A7E020287FF47DAF24B9FA
:1038B0002A68A9690791203A0892DCB2A34540F230
:1038C0009B8020220AA92846FFF7EEFD631C0028F2
:1038D000EAD12846AF6901F0A5F800283FF464AFAB
:1038E000AF61EBE75C45A5D2A2E7B9F1000FA2D129
:1038F0005C4538BF0024852B86D14FF00109A1E734
:10390000C7EB0A085FFA88F8B8F10F0F28BF4FF02D
:103910000F0843463A4600990AA800F0DDFE002849
:1039200051D04744FFB2BA457FF46EAF029B1806F0
:103930003FF53AAF13F0320F05D096F8313013F05F
:10394000110F7FF431AF029AD106134640F1BC80CB
:103950009A077FF529AF96F83130002B3FF424AF5A
:10396000D6E90023134305D000220023C6E9002333
:103970000021B161304601F0F3F800283FF414AFA4
:10398000012016E79DF829309DF8042086F83320A1
:103990009F0744BF9DF80C3086F83330DDE90C23D7
:1039A000DDE91001C6E904230F9BF361009BC6E922
:1039B0000201002BBAD09DF82B30534505D04FF0B3
:1039C00000094F4620E781461EE7BDF82C30049AD7
:1039D0009342F4D1002717E7D5E9002313433FF4BE
:1039E000FAAE00220023C5E90023AC61F3E604929D
:1039F000F1E600BF8988888895F833303822C3F310
:103A000080130021304607AC8DF8243009F0BCF853
:103A10002B6A029D336294E8070005F0070708252A
:103A200067F07D0986F831500AF11E0706F124057A
:103A300085E80700FFB2009DCDF800904FF0000828
:103A400018460122214600F07BFB814600283FF406
:103A5000ABAE90F90020002AFFF6A6AE202200218E
:103A600009F092F8B8F1000F50D0B8F1010F3CD036
:103A7000C8EB08120F2FA2F11E024FF0C101384609
:103A800028BF0F20D2B289F8001058B109F1020303
:103A900000B203EB40002A4412F8011B23F8021B7A
:103AA0009842F9D108F101085FFA88F8C34518D99E
:103AB00020222146306A00F099FB01287FF474AE81
:103AC0000F3FFFB2306ABCE713469B067FF558AF45
:103AD000D6E904233046FFF7D5FD00287FF450AF28
:103AE00062E6304600F01EFF63E69DF80030C0211C
:103AF000032289F8001089F8012086F83330BDF8D8
:103B0000103089F803A0A9F80430CBE7059B5A1CB4
:103B1000D2B285210B4B89F8001086F8302089F845
:103B200001201A68002ABDD00DF11A0106A890479D
:103B3000BDF81A10BDF81820A9F80810A9F80A2035
:103B4000B0E700BF640302202DE9F043064695B0BC
:103B500096F83140039200208DF849008DF84A0014
:103B60008DF84B0034B9994691F8313013F0500F6D
:103B70000D4603D1002015B0BDE8F08313782F2B3C
:103B8000144633D04FF00108214603AB04AA304657
:103B9000FFF718FC0028EDD0039B1B78002B3AD0D0
:103BA0009DF81030059ACDF8008029463046FFF781
:103BB000E9FD0028DED0344606AF06F1300E20685D
:103BC0006168A268E3683D460FC5103474452F460E
:103BD000F5D120682860304600F0A4FE002386F866
:103BE000313086F83330039C06ADCDE701340394C1
:103BF00021782F29FAD0D1B1382206A800212F6AC6
:103C000008F0C2FF4022012306AD0E978DF849202F
:103C10008DF84B30B6E79DF81030059ACDF800903E
:103C200029463046FFF7AEFD15B0BDE8F0833822D7
:103C300030462C6A08F0A8FF40230120346286F841
:103C4000313086F8330096E721B1DBB201F58861A7
:103C5000FFF77ABF0846704700224FF0FF3302702B
:103C6000836070474368002B3BD02DE9F0410E463E
:103C70008168B142174604460FD00278D20716D4A5
:103C8000BB0700F10C0521D5002307F001021A4300
:103C90002270A6602846BDE8F081054607F00102C3
:103CA00015F90C3B1A4322702846BDE8F0811A68CA
:103CB00000F10C05D2F8188018462A46C04768B1B2
:103CC000237823F001032370BB07DDD46068036809
:103CD0002A469B68314698470028D5D10020BDE888
:103CE000F0810020704700BF0378DB0701D401207A
:103CF000704710B504464068A168036804F10C02DF
:103D00009B69984720B1237823F00103237010BDED
:103D100010BD00BF2DE9F0474FF0FF330025C0F87C
:103D200038144160C0F8101280F83C54057080F8D7
:103D30000C528360C0F81432E9B10B6800F50678C4
:103D4000164604469B680846424629469847074659
:103D500088B1042E84F80C52C4F814520BD876B9EA
:103D60000522774904F21B2009F098FA18B994F853
:103D70008432092B25D000273846BDE8F087731E12
:103D800004EB031393F8D62312F07F05F3D193F8D5
:103D9000DA33002BEFD008EB0616D4F81002D6F871
:103DA000B6610028E7D0002EDAD0036842469B684F
:103DB000314698470028DED084F80C52C4F81462CB
:103DC000CEE794F885E2D4F87032D4F86812C4F8DB
:103DD00018040EF109050122AA4031441E44D4F80A
:103DE0006C32C4F834240546C4F82034501ED4F88C
:103DF0007832D4F8742284F83DE4C4F83004C4F86E
:103E00001C14C4F82464A846A946C4F82824C4F89D
:103E10002C34606806EB183600286CD0A1688E42FE
:103E20007CD02378DB077CD404F10C0A036852466B
:103E30009B683146984700285DD084F80090A660C2
:103E400000201AF80030DA0708F101014BD44A1BB0
:103E5000012A4ED0D4F828248A425AD99E0708F164
:103E6000020142D44E1B012E43D0914251D25E0733
:103E700008F103013BD44E1B012E3AD08A4248D9A7
:103E80001E0708F104013AD44E1B012E31D08A429C
:103E90003FD9DE0608F1050133D44E1B012E28D090
:103EA0008A4236D99E0608F106012CD44E1B012EFB
:103EB0001FD08A422DD95E0608F1070125D44E1B7A
:103EC000012E16D0914224D21B0608F108081ED4F8
:103ED000C5EB0803012B0CD042451AD90130B0F5CF
:103EE000007FAED117E00D46B4E70D46BDE70D46A5
:103EF000C4E7C4F81854402384F83C343CE70D462A
:103F0000C5E70D46CCE70D46D3E70D46DAE7454653
:103F1000E2E70025A846D4F824647AE704F10C0A05
:103F20008EE7036804F10C0A9B6952469847002803
:103F3000E1D02378606823F00103237076E700BFA7
:103F4000143D01002DE9F04F83B0074691460191E1
:103F500000295AD0A1F10208D7F8283498454FD249
:103F600008F00705012303FA05F5EDB2C8F3C80A06
:103F700046464446D7F82434786803EB143300935C
:103F8000002860D0B9688B424DD03B78DB074DD418
:103F900007F10C0B036800999B685A469847002864
:103FA00051D04FF000033B70009BBB601BF80A1020
:103FB0000AE04A452CD0A04510D0D7F828249442D6
:103FC00018D213F0FF050DD001340D424FEA45031E
:103FD000A4EB0602EDD0A0452646EED1012003B0A9
:103FE000BDE8F08F0AF1010ABAF5007F4FF0010534
:103FF000DCD101E0002634464FF0000A0125B9E784
:104000004FF00008C2460125B2E7D0F81884A3E7B4
:10401000019B23B9B9F1010F08BFC7F81864B01CA0
:1040200003B0BDE8F08F07F10C0BBFE7036807F1A1
:104030000C0B9B695A46984728B13B78786823F067
:1040400001033B70A6E7002003B0BDE8F08F00BF7E
:104050002DE9F84F02390646D0F8280415468A188B
:10406000824248D89846D6F81834B8F1000F45D1A6
:10407000994238BFC6F8181401F007040123D6F896
:10408000242403FA04F4E4B202EB113AC1F3C809A0
:1040900070680AF1010770B3B1688A453BD0337884
:1040A000DB073ED406F10C0B03685A469B68514669
:1040B000984700B3C6F808A001230BEB0901337041
:1040C0000BF5007B0A78224214BF012300234345ED
:1040D00082EA04024FEA44040DD0013D0A7017D071
:1040E00014F0FF04EED101318B45A1464FF00104DD
:1040F000E8D1BA46CCE70020BDE8F88F9942BBD89A
:104100009A42B9D9824228BF0022C6F81824B3E7E0
:104110000120BDE8F88FB3461BF80C3B43F00103C8
:10412000CBE7036806F10C0B9B695A4698470028B9
:10413000E1D03378706823F001033370B4E700BF37
:104140002DE9F04191E82800D0F8306490F83D4422
:10415000D0F82474D0F810E23540023B07EB552626
:10416000A340F418BEF1000F3CD08846D0F81412DA
:104170008C421546064616D090F80C32DA0717D452
:10418000AB0700F5067724D5C6F81442002205F0E7
:104190000105154386F80C52D8F80400C0F3080056
:1041A0003844BDE8F08190F90C2200F50677EEE77F
:1041B000DEF8003000F506779B6970463A4698476E
:1041C00080B196F80C3223F0010386F80C32AB076D
:1041D000DAD4D6F8100203683A469B68214698471D
:1041E0000028D1D10020BDE8F08100BF2DE9F047C3
:1041F0004C680D46A318D0F830146B6090F83D342D
:104200000C4009332244DBB222FA03F407460026AD
:104210003CB12B7A43B12B6801332B60013C002C5D
:10422000F7D10120BDE8F087D7F82834D5F8008011
:104230000133984503D94FF0FF30BDE8F087D7F838
:104240001C34D7F8100203EBD8190028F3D0D7F8A4
:10425000141289451AD097F80C32DB0719D407F5E8
:10426000067A036852469B68494698470028E2D080
:1042700087F80C62C7F814924FEA8808C8F3080858
:104280005AF808305A1C15D02B60C7E707F5067A94
:10429000F2E7036807F5067A9B69524698470028BB
:1042A000C9D097F80C32D7F8100223F0010387F831
:1042B0000C32D6E70020BDE8F08700BF2DE9F843B7
:1042C000D0F8283401338B4202D2FF20BDE8F883B6
:1042D000D0F81C74D0F8103207EBD117002BF4D0B3
:1042E0000D46D0F814128F42164604461ED090F8A0
:1042F0000C22D0071DD404F506781A6818463946F2
:104300009368424698470028DFD00023C4F814720F
:1043100084F80C32A900C1F3080158F801305A1C86
:104320001ABF012033600020BDE8F88300F506784D
:10433000F0E71A6804F50678D2F818901846424655
:10434000C8470028C1D094F80C22D4F8103222F0CB
:10435000010284F80C22D0E7012946D92DE9F8435F
:10436000D0F828340133994202D90020BDE8F883FF
:10437000D0F81C74D0F8103207EBD117002BF4D012
:104380000C46D0F814128F42164605462FD090F8EE
:104390000C22D20716D400F506781A68184639465A
:1043A0009368424698470028DFD0C5F8147201236D
:1043B000A100C1F3080185F80C32012048F8016022
:1043C000BDE8F8831A6800F50678D2F81890184608
:1043D0004246C8470028C8D095F80C22D5F81032BC
:1043E00022F0010285F80C22D7E70020704790F8F0
:1043F0000C3200F5067843F00103D9E72DE9F04FC0
:104400000D4683B006460F46D6F8283401339D4248
:1044100003D9002003B0BDE8F08FD6F81C34D6F8DD
:104420001002EC0904EB03090028F2D0D6F81412AC
:10443000894500F0C58096F80C32DB0700F1C38097
:1044400006F5067B03685A469B684946984700284C
:10445000DFD00023C6F8149286F80C32AB00C3F309
:1044600008030BEB030A5BF80330591C16BF984690
:1044700000230123012D0193CBD9D6F82834013331
:104480009D42C6D8D6F81C34D6F810021C44002829
:10449000BFD0A14596F80C3269D0DA076AD4036818
:1044A0005A469B68214698470028B2D0C6F8144265
:1044B000012301350022454586F80C32CAF8002058
:1044C00002D1019B002B50D1ED1BD6F82834023FBE
:1044D000EA199A429DD8D6F8183407F007049F428B
:1044E0004FF00102D6F8243438BFC6F8187402FA27
:1044F00004F403EB1739E4B2C7F3C807706809F195
:10450000010A002885D0B168894544D03378DB079B
:1045100047D406F10C0B03685A469B6849469847F6
:1045200000283FF476AFC6F8089001230BEB070193
:1045300033700BF5007B0B78234283EA04004FEACB
:1045400044023FF466AF013D08700AD012F0FF0448
:10455000F1D10131594527464FF00104EBD1D14645
:10456000CCE7019B002B40D0474645464CE743F043
:1045700001039EE7036849469B695A46984700280D
:104580003FF447AF96F80C32D6F8100223F001033F
:1045900086F80C3283E7B3461BF80C3B43F001036B
:1045A000C4E7036806F10C0B9B695A46984700283C
:1045B0003FF42FAF3378706823F001033370AAE71C
:1045C00006F5067B4AE7036806F5067B9B695A46B3
:1045D000984700283FF41DAF96F80C32D6F8100229
:1045E00023F0010386F80C322CE7012003B0BDE86C
:1045F000F08F00BF2DE9F8434FF00008D0F82C44AD
:1046000006464746D6F828340133A34208D2002391
:1046100096F83D040930C0B203FA00F0BDE8F88313
:10462000D6F81C54D6F8100205EBD4150028EED0AD
:10463000D6F814128D421AD096F80C32DA0719D433
:1046400006F5067903684A469B682946984700287C
:10465000DDD086F80C72C6F81452A400C4F3080426
:1046600059F80440631C16D008F10108CAE706F5A2
:104670000679F2E7036806F506799B694A4698478A
:104680000028C4D096F80C32D6F8100223F00103AB
:1046900086F80C32D6E708F10103B9E7D1B170B45E
:1046A000014410F8014BA4F12005D303EDB2A4F1AD
:1046B0006106192E98BF2C4643EA520214FA82F280
:1046C00092B2D30343EA5202814292B2E9D1104638
:1046D00070BC70471046704743B370B444887E2C5A
:1046E0001ED81344CD180A44023012F8013BE4B23C
:1046F000A3F161011929A4F1610194BF20260026CC
:10470000192994BF202100219B1B641ADBB2E4B25B
:104710009C4205D1954206D030F8024F7E2CE4D958
:10472000002070BC7047012070BC704701207047AA
:104730008169F8B50446006A01B101310122FFF731
:1047400001FC012806462FD9012301461A46206A9A
:10475000FFF77EFC074638B3A06994F8333030B3D6
:104760005A0613D5421C964225D023F0400284F805
:104770003320E36905E0206AFFF7EEFDA0B1A069F0
:104780002B465D1C834219462A46F4D34FF0FF3274
:104790003146206AFFF7E0FD30B1A16959B13246D8
:1047A000206AFFF7D9FD30B900273846F8BD43F03D
:1047B000400384F83330A6613846F8BD2DE9F04F48
:1047C00000F1240A06469AE8070087B00DF10C08AC
:1047D00088E807000027DFF848B1B9463C460022C8
:1047E0004146306AFFF7ACFCFBB2054630B10278B7
:1047F000C02A58D0C12A2DD0852A09D096F8323047
:1048000043F0010386F83230002007B0BDE8F08F96
:1048100096F83110DBF8002090F8019001F0370194
:1048200081807AB3306A019390F80C1241F0010153
:1048300080F80C120DF10A0102A89047BDF808207B
:10484000BDF80A10EA816A82019B2A78A98129822F
:10485000852A17D0691E1F3511F8010FE20342EABD
:10486000540410FA84F48D42A4B2F5D14B4538D0EB
:1048700020224146306AFFF7B9FC012807F1010701
:10488000ADD0BBE7002101E01F29EFD8685CE2034F
:1048900042EA540410FA84F40129A4B201F101019E
:1048A000F2D10421F2E796F8332012F0400F42785B
:1048B00014BF42F0020202F0FD024270D6E9040188
:1048C000C5E90201D6E90201F2696A61C5E906019A
:1048D000316A91F80C2242F0010281F80C222A7808
:1048E000B6E751460122306AFFF72AFC002885D03E
:1048F000356A44802846FFF7F7F900283FF47EAF79
:1049000005F50370FFF7F0F900283FF477AFD5F80D
:10491000380403685B69984700283FF46FAF74E779
:104920006403022090F8312092B138B590F833201A
:1049300011060FD4056A04462846FFF7D5F988B951
:1049400094F8323043F0010384F83230002038BD4F
:104950000120704702F07F0280F83320BDE8384024
:10496000FFF72CBF05F50370FFF7BEF90028E7D06D
:10497000D5F8380403685B6998470028E0D0012027
:1049800038BD00BF52EA030103D090F83310890705
:1049900001D400207047C1690029FAD12DE9F843FC
:1049A0000646006A1D4690F83D34093312F1FF387F
:1049B000DBB245F1FF39C3F1200709FA07F71446C6
:1049C00028FA03F2203B3A4329FA03F31A43571C0F
:1049D0003A46FFF7B7FA0128804606D901463A461B
:1049E0000123306AFFF734FB10B90020BDE8F883DB
:1049F00096F8333096F83120C6F81C8063F03F01FA
:104A0000C6E9024586F8331052B103F07F0343F044
:104A1000400386F833303046BDE8F843FFF7CEBE9A
:104A2000BDE8F8832DE9F04790F831305906044687
:104A30005BD48068236AD3F834341844B0F1806FB3
:104A400003D300263046BDE8F0872046FFF770FE0E
:104A500006460028F5D0256A95F80C32DA0705F5E8
:104A6000037760D4384605F50678FFF7F5F84FF47C
:104A700000720021404608F087F8256AA36995F87E
:104A80003D14D5F82424A3F1020A4FF001090AFAD3
:104A900001FA19FA01F3924418BF002711D0D5F892
:104AA000380403680AEB07019B69424698470137BF
:104AB0000028C6D0256A95F83D3409FA03F3BB42B5
:104AC000EDD894F831E094F833701EF0400F10D018
:104AD0003B063CD42846FFF707F950BB94F8323028
:104AE00043F0010384F83230ABE7006AFFF782FD40
:104AF000A0E747F08007D4E9022384F83370D5F8A3
:104B00003404D4E9048912184FF000014B4110EB32
:104B1000080041EB0901C4E90223C4E90401BEF124
:104B2000000F8FD0D4E73846FFF7DEF8002899D180
:104B300087E705F50370FFF7D7F80028CED0D5F842
:104B4000380403685B6998470028C7D07AE707F004
:104B50007F0784F833702046BDE8F047FFF72EBE8C
:104B600090F833309A0749D5C169002944D0F0B58F
:104B700003F04002044683B002F0FF00002A3FD059
:104B8000206AD4F818E090F83D54D4E9026709355A
:104B9000EDB216F1FF36C5F1200C47F1FF3726FACA
:104BA00005F207FA0CFC203D42EA0C0227FA05F553
:104BB0002A430132BEF1000F43D00139CEEB01018F
:104BC0000A440EF101010191002A34D1D4E9000117
:104BD00094F8312043F0800384F83330C4E90201B3
:104BE000C4E9040122B303F07F0384F83330204684
:104BF000FFF7E4FD03B0F0BD0120704700207047CF
:104C0000A3690BBB0191E361206AFFF7F7FBB0B129
:104C100094F8333094F83120D4E9000143F0800354
:104C200084F83330C4E90201C4E90401002ADAD16E
:104C3000012003B0F0BD0023FFF70AFA98B9002065
:104C4000D8E7C4F81CE0BEE702AA194642F8040DF2
:104C5000206AFFF733FB40B20028F0DB06D1019950
:104C60000029D5D0D0E794F83330AFE74FF0FF32CA
:104C7000A169206AFFF770FB0028F0D1DFE700BFD1
:104C80002DE9F04F90F8333085B09C07064601922D
:104C90000AD496F8323043F0010386F832304FF0F0
:104CA000FF3005B0BDE8F08F5A078A4600F1118148
:104CB000019B002B00F0218131469846F1E8062344
:104CC00003919346306AB569D0F830445B461C4086
:104CD000C4F308094CBB002D00F0BE8096F83330B9
:104CE0005B0640F1DD80D6E9022390F83D74093778
:104CF000FFB212F1FF3243F1FF33C7F1200E03FA86
:104D00000EFE22FA07F1203F23FA07F741EA0E01CF
:104D1000F36939430B449D42C0F0B5803046FFF73C
:104D200007FD0028B5D0306AB569D0F8247490F832
:104D30003DE4640A023DE11905FA0EF52944B9F192
:104D4000000F40F08280B8F5007F57D2D6E90423E7
:104D5000D6E90045B8F5007F474628BF4FF40077F5
:104D60009D4208BF944234BF0122032200F5037024
:104D7000FEF778FF00288CD048443A465146B944A3
:104D800004F040FBB9F5007F00F092803846002126
:104D9000D6E90023D6E9044512EB000B43EB010CE6
:104DA00065455A46634608BF5C45BA44C7EB0808E8
:104DB000C6E9002309D296F8331064465B46C6E97B
:104DC000043461F07F0186F83310B8F1000F7FF4EE
:104DD00079AF5A466346D6E90201994208BF90422C
:104DE0007FD3474B1B68002B00F0858096F833304B
:104DF000019863F07F0386F8333052E7B8F5806F8F
:104E00002ED3012303FA0EFEC4EB0E0ED0F814329B
:104E10004FEA5824744528BF744699424FEA442704
:104E200009D362189A4206D900F503700291FEF781
:104E300013FF306A0299D0F83804056823465246B9
:104E4000EC69A0470028A1D123E7C9F500774745C1
:104E500028BF4746012289E7F569BDB1B56164E71E
:104E6000D0F8143299422CD0D0F838040368524656
:104E70009B69984700283FF40CAF4FF40070002165
:104E80004FF4007784E70135B5614EE73046FFF710
:104E90004FFC00283FF4FDAEB569F561306A44E788
:104EA0002946039AFFF70AFA00287FF43CAF35E75A
:104EB000306A00F50370FEF717FF00287FF466AF35
:104EC000E7E600F503700291FEF7C6FE306A02992C
:104ED000CAE7D0E90423FEF7D5FB00283FF4D9AE9A
:104EE000E6E696F83310019861F07F01C6E90223E7
:104EF00086F83310D5E60198D3E6D6E900236AE7B1
:104F00006403022030B590F90230002B83B00446D0
:104F100019DBA56805F1240000F066FD30B963785F
:104F200043F001036370002003B030BD05F50C7041
:104F300000F05AFD0028F2D0286803685B699847A2
:104F40000028ECD0F0E78068A1692430012200F04D
:104F500003FD0028E3D0A38803F00F035B01C5180D
:104F6000DDD0C35CE52BDAD023780D4A1B0744BFA4
:104F7000E369EB61236A12686B831B0CAB8252B14D
:104F80000DF1060101A89047BDF80430BDF80620D8
:104F90002B836B82EA82A37803F07F03A370B8E7C8
:104FA000640302202DE9F04103789B0603D42A4BC9
:104FB00042699A4203D900263046BDE8F081024694
:104FC000054652F8104F8068214600F08DFE0646D7
:104FD0000028F0D06CBBAB78296943F0400363F044
:104FE0007F03AB70A86800F029FD0746A868394622
:104FF0002430052200F0B0FC80460028DBD04FF4BE
:105000000072002107F0C0FDAB681A79012A18D997
:10501000012403E0AB681A79A24212D91868036828
:10502000E1199B69424698470134E4B20028F1D166
:10503000C1E72969AB780134A14218BF03F0BF036F
:10504000CDE79B7969694FF4007202FA03F311FA14
:1050500083F36B61B0E700BFFFFD1F0030B503783D
:1050600083B004462BB9012000232370A37003B042
:1050700030BD90F90230002B1CDBA56805F124003F
:1050800000F0B2FC48B9637843F00103637000207C
:1050900000232370A37003B030BD05F50C7000F041
:1050A000A3FC0028EFD0286803685B6998470028B4
:1050B000E9D0D9E78068A1692430012200F04CFCD6
:1050C0000028E0D0A38803F00F035B01C518DAD0F5
:1050D000C35CE52BD7D023780D4A1B0744BFE36997
:1050E000EB61236A12686B831B0CAB8252B10DF12A
:1050F000060101A89047BDF80430BDF806202B83B7
:105100006B82EA82A37803F07F03A370B5E700BF48
:105110006403022009B90020704738B583789B07E3
:1051200001D4002038BD036A002BFAD10446806800
:10513000837909330D46DBB20139D940013104F1DD
:10514000200200F0A7FE0028EBD0A3782278E561CA
:1051500063F01F03A37002B938BD2046BDE8384094
:10516000FFF7D0BE2DE9F041064692B034780192A7
:1051700000208DF824008DF825008DF826002CB92C
:105180001F460B7813F0700F0D4603D1002012B0AC
:10519000BDE8F08113782F2B144625D101340194FA
:1051A00094F80080B8F12F0FF8D0B8F1000F46D076
:1051B000AD6809A82422002107F0E6FC0B95EB79E5
:1051C000102B38D0202BE1D140238DF8243001233F
:1051D00009AD8DF8263007E03046FFF793FE002337
:1051E000019C3370B37009AD01AA03A9204601F0F8
:1051F000E1F903AA294601230028C7D0019C24789D
:1052000030467CB101F07CFB354609AC0028BDD0AE
:105210000FCD0FC40FCD0FC433782A682260002B46
:10522000DDD0D9E73B4603AA2946304601F068FBAA
:1052300012B0BDE8F08120238DF82430C7E7AC68B8
:1052400024224146304607F09FFCB460E379102BDE
:1052500006D0202B07D1402333700120B07096E791
:1052600020233370F9E7404691E700BF19B101F2FE
:105270003C41FFF777BF0846704700BF70B5047820
:105280000CB1002070BD05460E462422214607F0D1
:105290007BFCAE60F379102B09D0202B05D10124C3
:1052A00040232B70AC70204670BD204670BD012499
:1052B00020232B70AC70204670BD00BF2DE9F04F4D
:1052C0008378DF0783B0054640F190800F46017870
:1052D0000E07914600F193808C0608D582684369D9
:1052E0001289C3EB42139BB2994528BF9946B9F185
:1052F000000F00F0AA806B69AA6888064E464FF03E
:10530000000805F1100AC3F3080B3FD5116A01EB41
:105310005321BBF1000F53D1B6F5007F50D3D36AB0
:1053200099424DD0B6F5806F72D328788006C6F3C7
:10533000472B06D41079C8EB0000C0B2834528BFC4
:10534000834699424FEA4B240BD35B44994208D2DF
:1053500002F12400019100F047FB002846D0AA6822
:105360000199106802685B46D2F80CB03A46D847FB
:1053700000283BD06B69361B234427446B6164D003
:105380002978AA688806C3F3080BBFD492F8058071
:1053900008EA5328BBF1000F38D1B8F1000F35D11E
:1053A000002B3FD149064CBF116A296A296110467A
:1053B00000F044FBAA6808EB0001BBF1000FABD082
:1053C00002F12400002200F0C7FA78B1CBF5007496
:1053D000B44228BF344600EB0B012246384604F0A5
:1053E00011F8C7E72B7813F0700F2FD16B784FF0BF
:1053F000FF3043F002036B7003B0BDE8F08FC36968
:1054000042699B1A994528BF994670E72969CEE7FA
:10541000106803683A469B6898470028E6D04FF426
:105420000074A7E70B0705D5AB785C0602D52969A0
:105430000131BBE710462969524600F005FB002800
:10544000D4DBCFD0AA682969B1E70026C6EB0900F2
:1054500003B0BDE8F08F00BF70B582B001220DF13E
:105460000701044646690569FFF728FF012808BFC0
:105470009DF80700666118BF4FF0FF30256102B04C
:1054800070BD00BF30B54369C3F3431583B0044614
:1054900005B189B901220DF107012046FFF70EFF82
:1054A00040B201280BD163691F336361A0683030BB
:1054B00000EB451003B030BD20334361F6E7002018
:1054C00003B030BD2DE9F041037807690446B3B15C
:1054D00042698A420E463AD041B92161A378666199
:1054E00023F02003A3700120BDE8F08118070AD43F
:1054F00099060BD5A3681B89B6EB431FEED927612C
:105500000020BDE8F081E1698E42F8D8D4F808E0C7
:105510009EF806500935E9B2501E751EC840CD40B0
:10552000A84200D8B2B95B064CBFDEF82030236A2F
:10553000236104F110084246002DCFD02169A068F4
:1055400000F082FA002805F1FF35F4DCD7E70120EE
:10555000BDE8F0812D1AECE72DE9F0410D469046AB
:105560000021242204461F469DF8186007F00CFB1A
:10557000A8682B6AE36008F00F0500F1300303EB25
:105580004515A060A4F80480EA7A130710D402F04D
:1055900017022270EB7AE67013F0180F04BF42F086
:1055A0000802227017F0320F07D012F0110F04D04A
:1055B00000202070A070BDE8F08107F00702A27003
:1055C000A98A6B8BC66AA661FE0643EA014106D52D
:1055D000BD07EDD591B962F07F02A27002E02162B1
:1055E000EB69E361BB0602D40120BDE8F081E1690B
:1055F0002046FFF767FF0028F6D1D9E700F0D0FD7D
:105600000028D5D0A278E6E7037803B330B590F947
:105610000230002B83B004461BDBA56805F1240093
:1056200000F0E2F930B9637843F0010363700020C1
:1056300003B030BD05F50C7000F0D6F90028F2D0AB
:10564000286803685B6998470028ECD0F0E70120E0
:1056500070478068A1692430012200F07DF900289C
:10566000E1D0A38803F00F035B01C518DBD0C35C56
:10567000E52BD8D02378114A1B0744BFE369EB61BF
:10568000236A12686B831B0CAB8252B10DF10601C9
:1056900001A89047BDF80430BDF806202B836B822B
:1056A000EA82A378A56803F07F03A37005F12400C4
:1056B00000F09AF90028B6D0BCE700BF64030220CE
:1056C00083789B071AD5036AB3B110B5016982B01C
:1056D0000446F1B9019301621946A06800F060FD2B
:1056E000A8B1A37822786169E16163F07F03A370B8
:1056F000EAB9012002B010BD0120704700207047B8
:105700006FF070422169A06800F046FA58B9002095
:10571000F0E702AA002342F8043D806800F094F903
:105720000028F4DBECD1019B002BDAD0D4E7204633
:10573000FFF7E8FBDEE700BF2DE9F04F83789D0718
:1057400083B0044608D4637843F0010363704FF0DC
:10575000FF3003B0BDE8F08F88465907914600F14D
:10576000D4806369DA439145EDD8B9F1000F00F0B8
:10577000D8804E464FF0000A3AE0002900F08480BD
:10578000A278520640F19280E2699A4240F28E80FD
:105790000131216100F052F9B6F5007F014658D37E
:1057A000B6F5806FA06861D30279C76A521BC6F351
:1057B0004723D2B2934228BF13468F424FEA432574
:1057C00008D81F448F4205D980F824A04FF0FF323B
:1057D000C262A068006807684246FF69B8470028AF
:1057E000B1D06369761B2B44A844636100F09980B3
:1057F000A0682169427912EA5325C3F3080720D132
:10580000002FBAD000F01AF90146C7F50075B5426D
:10581000A06828BF35460122243000F09DF80028FA
:1058200091D038442A4641462F4403F0EBFDB7F5AA
:10583000007FD6D1A068243000F0D6F80028D0D15F
:1058400081E700F0FBF82918002FDED1B6F5007FC4
:10585000A6D26269E369A068B6F5007F354628BF25
:105860004FF400759A4242D30522D5E7C36A8B42B2
:1058700044D00068036842469B69984700283FF47B
:1058800062AF4FF40075ACE7216A002981D104F1C1
:10589000100200F029FA00283FF455AFA3782169DF
:1058A000216263F03F03A370A06873E704F1100B5B
:1058B0005A4600F0C9F80028FFF645AF46D12369E3
:1058C000A06801935A46194600F00EFA00283FF4EA
:1058D0003AAF019B03B3216901339942A37818BF02
:1058E00003F0BF0363F07F03A370A06852E7A378BF
:1058F00013F0200F0CBF012205228DE780F824A0B1
:105900004FF0FF33C362A068B3E7C169FFF7DAFD68
:1059100000283FF418AF24E7A378216943F040033F
:10592000E0E7E2699A4208D30A4B1B6863B1A378A7
:1059300063F07F034846A3700BE7A278E36162F04F
:105940007F034846A37004E7484602E7A068216940
:1059500020E700BF64030220F8B50F468168B94212
:10596000054614460ED00378D80714D4630705F112
:105970000C0621D5002304F003041C432C70AF60F7
:105980003046F8BD064604F0030416F90C3B1C43F0
:105990002C703046F8BD6B681868036805F10C067A
:1059A0009B693246984780B12B789A070FD423F031
:1059B00001032B706307DDD46B68186803683246F7
:1059C0009B68394698470028D4D10020F8BD6B6801
:1059D000AA6818681969036811449B693246984798
:1059E0000028F2D02B78E2E7F8B50378D90702D483
:1059F00001242046F8BD436881680546186803689D
:105A000005F10C069B6932469847044698B12B78FD
:105A10009A0704D423F001032B702046F8BD6B686D
:105A2000A96818681F690368324639449B6998471A
:105A300008B12B78EEE700242046F8BD8379406951
:105A400002399940084470472DE9F041C379202B71
:105A500004460D46174645D0102B28D18369D0F84F
:105A60003812C5F307261E448E4290F8303222D0F9
:105A7000D80723D404F50F78D4F8343218680368B3
:105A800042469B683146984788B1C4F83862022381
:105A9000EDB204EB450584F83032B5F83C32E269EA
:105AA00093429ABF01203B600020BDE8F0814FF097
:105AB000FF30BDE8F08143F00203E9E7D4F8343267
:105AC0001868036804F50F789B69424698470028D8
:105AD000EDD094F830329A073ED423F0010384F8D5
